:0C800000F8B5C046F8BC08BC9E467047AE
:10800C0010B50021040000F0D3FE044B1868C36BBC
:10801C00002B00D09847200000F05AF9F89100008E
:10802C0013B5802400F066F96400012000F0CEF94D
:10803C002000064900F00EFA00232000044A0093A9
:10804C00002300F04BFA00F07FFAC0466581000077
:10805C00B6030000034B10B5002B02D0024800F011
:10806C0019FF10BD00000000B18E000010B5064CC9
:10807C002378002B07D1054B002B02D0044800E0DD
:10808C0000BF0123237010BD609A010000000000A6
:10809C0004920000044B10B5002B03D00349044894
:1080AC0000E000BF10BDC04600000000649A010053
:1080BC0004920000164B002B00D1144B9D4640221D
:1080CC0092029A1A924600218B460F461348144A84
:1080DC00121A00F0F7FD0F4B002B00D098470E4BF7
:1080EC00002B00D098470020002104000D000D4803
:1080FC00002802D00C4800F0CDFE00F0F7FA20006A
:10810C002900FFF78DFFFFF77BFFC046000008003A
:10811C000000000000000000000000005C9A01005C
:10812C000C9B0100A18E0000B18E00004022014B7F
:10813C001A6070470844004101238340014A1360D0
:10814C007047C0461844004101238340014A136024
:10815C007047C0461444004137B50C4C06202578B6
:10816C00002D0BD0FFF7F0FF0023094A237000937A
:10817C0080200023400000F0B1F937BDFFF7DCFF91
:10818C000123322223700095F2E7C0467C9A01004D
:10819C00B6030000FA210D4B10B51868890000F0E9
:1081AC0019FA802301385B0498420DD2C021084A89
:1081BC00090650600748036A1B021B0A0B43036243
:1081CC00002393600733136010BDC0461892010062
:1081DC0010E000E000ED00E070B5FA250624ED009B
:1081EC002000FFF7A9FF280000F0BAF82000FFF7E5
:1081FC00ABFFFA20400000F0B3F8F1E770B5FA25B8
:10820C000624AD002000FFF797FF280000F0A8F827
:10821C002000FFF799FF962000F0A2F8F2E770B566
:10822C00FA250624AD002000FFF786FF642000F03D
:10823C0097F82000FFF788FF280000F091F8F2E78C
:10824C0070B5FA2506246D002000FFF775FF32206B
:10825C0000F086F82000FFF777FF280000F080F888
:10826C00F2E770B5062532242800FFF765FF2000E1
:10827C0000F076F82800FFF767FF200000F070F898
:10828C00F2E770B5062564242800FFF755FF20009F
:10829C0000F066F82800FFF757FF200000F060F8A8
:1082AC00F2E710B572B60138FF3804280ED800F08A
:1082BC0087F9030507090B00FFF78EFFFFF79EFFF9
:1082CC00FFF7ADFFFFF7CDFFFFF7BAFFFFF7D9FFC1
:1082DC00FEE70000054A03001168002901D104499A
:1082EC0011601068C31813607047C046809A010073
:1082FC000C9B010010B5FFF719FFFFF74BFF10BDEA
:10830C00F7B51348012284461249134C8E686368F2
:10831C0005689B0E1340019288686268019F920E5B
:10832C003A4067463F6893420ED1BD420CD186421B
:10833C000AD35B19FA254868AD00861B07486B43C6
:10834C007043000DC018FEBD3D0013000600E3E7AE
:10835C00849A010010E000E000ED00E055550000AB
:10836C0070B5041E11D0FFF7CBFFFA260500B6003E
:10837C0000F00CF8FFF7C4FF401BB042F8D3FA230F
:10838C00013C9B00ED18002CF4D170BD704700002F
:10839C00010000200200084B30B51C68074B1B681D
:1083AC00944200DC30BD180038331D00383D2D8858
:1083BC008D42F7D00132F3E7E09A0100DC9A01001C
:1083CC00822010B54000FFF76CFF10BD431EF7B5BF
:1083DC001C4C0F2B1ED910232360382023685843C4
:1083EC0000F0A6F9184D2860002803D10220FF30B8
:1083FC00FFF757FF0022154B11001A60236838272E
:10840C0001932B6800241E00002521360198904210
:10841C0002DCF7BD2060E0E7581C9C60DD601C614D
:10842C005D619C61DD611980C17738005043315426
:10843C00D81CC177064859629862D9621963013217
:10844C003833E3E7E09A0100DC9A0100A49A0100BA
:10845C00CD830000F8B500251B4B1C4C1A68266810
:10846C002132AE4204DC80204000FFF71AFF1AE0F4
:10847C00130038321700383F3F78213B002F21D1B1
:10848C00188001209A1CD077996211490A68121839
:10849C000A60104A1048116800290ED00068196350
:1084AC00D8621360CB620A4B1A6823689A4203DDC8
:1084BC000220FF30FFF7F5FEF8BD13600360DB62AE
:1084CC001B63F0E70135CCE7DC9A0100E09A010070
:1084DC00A49A0100A09A01009C9A010070B51400A6
:1084EC001D00FFF755FF002812D00A4B8461C561AF
:1084FC001A685B688260C360A4185D410122431C4A
:10850C0004614561DA770022C31CDA77049B43626D
:10851C0070BDC046909A010070B50C00FFF738FF93
:10852C0000280ED08569C669064B1A685B688260A4
:10853C00C36052197341026143610122431CDA7713
:10854C00446270BD909A0100184B70B51C68002CE9
:10855C0000D1FEE7164A651C136801331360EB7FEC
:10856C00002B21D0134B61691A685B6899421BD8A8
:10857C0002D12169914217D800230F4AEB77136877
:10858C00606A01331360A36A9847E31CDB7F002BFE
:10859C0006D0EB7F002B03D12088616AFFF7BCFF6C
:1085AC00064A136801331360E46AD3E79C9A01000E
:1085BC008C9A0100909A0100889A0100989A010007
:1085CC0002B4714649084900095C49008E4402BC5A
:1085DC007047C046002243088B4274D303098B4278
:1085EC005FD3030A8B4244D3030B8B4228D3030C77
:1085FC008B420DD3FF22090212BA030C8B4202D319
:10860C001212090265D0030B8B4219D300E0090A40
:10861C00C30B8B4201D3CB03C01A5241830B8B4249
:10862C0001D38B03C01A5241430B8B4201D34B0332
:10863C00C01A5241030B8B4201D30B03C01A524197
:10864C00C30A8B4201D3CB02C01A5241830A8B421C
:10865C0001D38B02C01A5241430A8B4201D34B0205
:10866C00C01A5241030A8B4201D30B02C01A524169
:10867C00CDD2C3098B4201D3CB01C01A524183091D
:10868C008B4201D38B01C01A524143098B4201D357
:10869C004B01C01A524103098B4201D30B01C01A82
:1086AC005241C3088B4201D3CB00C01A52418308FC
:1086BC008B4201D38B00C01A524143088B4201D329
:1086CC004B00C01A5241411A00D201465241104689
:1086DC007047FFE701B5002000F006F802BDC04668
:1086EC000029F7D076E770477047C04670B50C4D3F
:1086FC000C4E761BB61005D0002408CD01349847DB
:10870C00A642FAD1FFF776FC074D084E761BB61041
:10871C0005D0002408CD01349847A642FAD170BD8B
:10872C0008920100089201000892010010920100C9
:10873C0010B5034B0100186800F004F810BDC046DA
:10874C001C920100F0B54E464546DE465746E0B554
:10875C000D000B35060083B0162D22D8102900D938
:10876C00B2E000F003FB102502201823CB4FFB18BE
:10877C001A005C68083A944200D1B5E003236268A1
:10878C009A431300E268A168CA6091600122E31861
:10879C00596830000A435A6000F0F0FA20000830A3
:1087AC0095E007239D4300D58EE0A94200D98BE0CC
:1087BC0000F0DCFAFC235B009D4200D2A5E1680AC4
:1087CC0000D18BE0042800D978E138239846A80919
:1087DC0080443930C100B14F79184C680839A14236
:1087EC000ED003239C4604E0002ACBDAE468A142B5
:1087FC0006D06246636893435A1B0F2AF4DD404649
:10880C003A003C690832944200D178E00323616855
:10881C00994389460B00491B0F2900DD79E17A61E8
:10882C003A610029B2DA80229200914500D30EE120
:10883C005909DA0801238B40D2007968D2190B430D
:10884C0091687B60E260A1609460CC600121821031
:10885C009140994259D80B4205D1032290434900CB
:10886C0004300B42FBD003239846C3009946B9440D
:10887C00CC4682466346DC68A44507D12AE1002A2F
:10888C0000DB33E1E468A44500D123E14246636890
:10889C0093435A1B0F2AF2DD0120804661190543D0
:1088AC006560A068E5680837C560A860404610435D
:1088BC00F960B9604860CF6030008F60E25000F022
:1088CC005DFA2000083002E00C230020336003B076
:1088DC003CBC90469946A246AB46F0BD80213F2356
:1088EC0040209846890076E7DC680230A34200D02D
:1088FC0044E73A003C690832944200D086E70121F3
:10890C007B68821091409942A5D90323BC686268A8
:10891C009A439146954203D8531B0F2B00DD88E0F8
:10892C0023004B445E4A01935E4B93461B681268CE
:10893C00EB18013200D13BE15B4A944663441B0BBC
:10894C001B0300933000009900F020FA03008046CE
:10895C00013300D1F8E0019B834200D9F2E0534B84
:10896C0019009A460968009B8C46514663440B607B
:10897C0001991A00814200D150E15B461B6801331A
:10898C0000D155E1434601995B1A9A1853461A6077
:10899C000723424641461A400192194200D111E187
:1089AC0008239846881A424B0099804441449B1AEC
:1089BC005B1A1B051B0D0091300019009B4600F043
:1089CC00E5F9431C00D14FE14346C01A03005B4458
:1089DC000093534652461B6801215B441360424688
:1089EC004046BA60009A0A434260BC4200D123E17F
:1089FC004A460F2A00D821E107200C3A82436068CE
:108A0C000140052011436160A118486088600F2A5D
:108A1C0000D934E1424644465268264908689842D7
:108A2C0000D20B6024490868984200D38EE00B609A
:108A3C008CE0012229001343114365196160300059
:108A4C00BD606B6000F09AF9200008303FE75A0ACD
:108A5C00042A71D9142A00D9C4E011005C325B31AC
:108A6C00D20008235B429C46BA18944463469A6829
:108A7C0003239846944500D19DE0434651689943A1
:108A8C00494502D992689445F7D1D3689C467B68D6
:108A9C006146A260E1608C60D460D7E64896010024
:108AAC00509A0100D89A01000F100000A89A0100FA
:108ABC0008100000D09A0100D49A0100142852D951
:108ACC00542800D996E06E239846280B80446F30CA
:108ADC00C10080E608239B46073BDC449B46DA44F6
:108AEC0043465246134200D0C4E64CE00122E31840
:108AFC00596830000A435A60E368A268D3609A60F0
:108B0C0000F03CF920000830E1E62B00E8080833BF
:108B1C002CE6012360191D43656078613861C260E1
:108B2C0082601A004B460A4342603000E15000F06C
:108B3C0025F920000830CAE69A091100393238317B
:108B4C00D2008EE7BC4260D0BC68626803239A43B3
:108B5C00531B954202D80F2B00DD6AE7300000F062
:108B6C000DF90020B3E65B23984680445C30C100CD
:108B7C0031E608235B429C46E1444B469B68013836
:108B8C004B4500D098E043460342F2D17B688B43BF
:108B9C007B604900994200D9B7E6002904D1B4E6BC
:108BAC00042294464900E2440B42F9D050465CE65C
:108BBC0010330093C6E68910023B8B4079680B4357
:108BCC007B6065E7009B300043445B421B051B0D3B
:108BDC0019009B4600F0DAF8431C00D0F4E60023A1
:108BEC009B46F6E6542A2BD81A0B11006F326E31C5
:108BFC00D20036E7AA235B0098422BD8DD3B98467F
:108C0C00E80B80447830C100E5E52C4B009A9A467D
:108C1C001B689C46534662441A60AEE6090500D0B8
:108C2C00ABE6009ABC684A4401310A436260F4E640
:108C3C005B4642461A60ABE64446EEE641608DE781
:108C4C00AA2149008A4224D8DA0B110078327731F4
:108C5C00D20006E71A4B984224D87C239846A80CDD
:108C6C0080447D30C100B6E5009A019B9446424693
:108C7C00083B63449B1A009300239B46A9E6210002
:108C8C003000083100F070F95346BC681B6862680C
:108C9C00C3E60B498A420BD89A0C11007D327C3109
:108CAC00D200DEE6FE217E237F209846890092E5E5
:108CBC00FE227E219200D4E67B686AE7A89A010026
:108CCC0054050000F0B5050083074AD0541E002A55
:108CDC0044D003000322CEB202E00135013C3DD367
:108CEC0001332E701342F8D1032C2FD9FF220A40E6
:108CFC00150215432A0415430F2C35D92700103FB4
:108D0C003F093E01B4461E001A0010366644156039
:108D1C0055609560D5601032B242F8D10F260C2206
:108D2C0001373F012640DB193700224217D03E1F86
:108D3C00B608B400A4461A001C1D644420C2A2420A
:108D4C00FCD103240136B6009B193C40002C05D005
:108D5C00C9B21C19197001339C42FBD1F0BD34000F
:108D6C00F4E714000300BFE72700E0E710B5024862
:108D7C0000F0DCF910BDC046F49A010010B50248B1
:108D8C0000F0D6F910BDC046F49A0100002370B56E
:108D9C00064D040008002B60FFF79CFA431C00D022
:108DAC0070BD2B68002BFBD02360F9E7089B0100FA
:108DBC00F0B5DE464E4657464546E0B5334B83B0DC
:108DCC001B680190180000930F0000F0AFF9304BB6
:108DDC001B681A000093A4235B00D6580122994605
:108DEC009346002E30D07468651E2DD4C4235B00CE
:108DFC009A460134A4003419B24402E0043C013D0B
:108E0C0022D3002F04D080235B00E358BB42F5D162
:108E1C0073682268013BAB4232D000232360002AE6
:108E2C00ECD07368514698465B46AB4009681942D2
:108E3C0015D19047736843451ED14A46009B9B58F9
:108E4C00B342DBD01E1ECED1104B186800F070F967
:108E5C0003B03CBC90469946A246AB46F0BD3100EF
:108E6C008D31FF31096819420CD180230198E158EA
:108E7C00904773684345E0D04A46009B9E58B0E744
:108E8C007560CCE78023E0589047D3E7589A0100EF
:108E9C00F891000010B5010000230022002000F022
:108EAC0049F910BD70B5074D074C641BA41005D0D3
:108EBC00013CA300EB589847002CF9D100F090F935
:108ECC0070BDC0461092010014920100F8B50C0060
:108EDC000500FFF74BFF204FBB685E6803239E43E2
:108EEC001E4B341B9C466444240B013C113324035D
:108EFC009C4207DB00212800FFF748FFBB689B1949
:108F0C00984204D02800FFF739FF0020F8BD280054
:108F1C006142FFF73BFF431C0DD00122BB68361B9F
:108F2C0016435E600E4B28001A68141B1C60FFF77A
:108F3C0025FF0120EAE700212800FFF727FFBA6888
:108F4C00831A0F2BDEDD07490968401A04490860B3
:108F5C0001210B435360D5E748960100EF0F000049
:108F6C00A89A0100509A0100F0B5C64605000C0005
:108F7C0000B500294FD0FFF7F9FE210008394C68E5
:108F8C00012622000320B2438F187B68834362487A
:108F9C0098468368BB426BD043467B6026421ED109
:108FAC0008239C460C688444091B12198C68644580
:108FBC004FD0CB68E3609C604346FC186468344235
:108FCC0011D1BB68554C4244A34200D17FE0FC68F0
:108FDC00DC60A360012313434B608A5006E0FC184D
:108FEC0064683442EDD016434E603A6080239B0097
:108FFC009A4213D25409D3080122A2404468DB00E0
:10900C002243426018188368C8608B608160D96005
:10901C002800FFF7B3FE04BC9046F0BD530A042BA6
:10902C003FD89409260039343836E40004192368F3
:10903C00083C03279C4243D05868B843904202D95D
:10904C009B689C42F8D1DC68CC608B60A160D960D5
:10905C00DEE74346F8184068304258D11300B86830
:10906C00FA6843441E43C26090604E60CB50CFE719
:10907C0013004344264206D10A68891A8C689B184F
:10908C00CA68E260946001221A434A60244A8160F3
:10909C0012689A42BCD8234B28001968FFF716FFB8
:1090AC00B6E7142B07D9542B1AD8140B26006F349F
:1090BC006E36E400BAE71E005C335B36DC00B5E7C5
:1090CC000122B610B240466832434260BCE7D96018
:1090DC009960CB608B60012313434B608A5097E7F8
:1090EC00AA246400A34205D8D40B26007834773622
:1090FC00E4009BE70C4CA34205D8940C26007D346D
:10910C007C36E40092E7FE247E26A4008EE7330032
:10911C0013434B603A607BE7489601005096010080
:10912C00549A0100D89A0100540500007047C046BB
:10913C007047C046F0B5D6464F464646C0B5264F9A
:10914C0082B006003868924698468946FFF7EEFFD3
:10915C00224B1B680193A423019A5B00D558002D68
:10916C002ED06C681F2C30DC002E0FD1631C6B6072
:10917C004B460234A40038686351FFF7D9FF002036
:10918C0002B01CBC90469946A246F0BD88225146BE
:10919C002800A300EB189950873AA2408930FF3081
:1091AC000168114301608421404649005850022E49
:1091BC00DCD12B008D33FF3319680A431A60D5E7D5
:1091CC0015004D35FF35D550CBE73868FFF7B0FFAC
:1091DC0001204042D4E7C046589A0100F8910000A3
:0C91EC00F8B5C046F8BC08BC9E467047B1
:0491F80020920100C0
:0891FC00C4EEFF7F010000003A
:049204000000000066
:020000021000EC
:0892080061800000A18000005C
:049210007980000061
:1092180040420F0020920100000000000C95010060
:1092280074950100DC9501000000000000000000BA
:109238000000000000000000000000000000000026
:109248000000000000000000000000000000000016
:109258000000000000000000000000000000000006
:1092680000000000000000000000000000000000F6
:1092780000000000000000000000000000000000E6
:1092880000000000000000000000000000000000D6
:1092980000000000000000000000000000000000C6
:1092A80000000000000000000000000000000000B6
:1092B80000000000000000000000000000000000A6
:1092C80001000000000000000E33CDAB34126DE643
:1092D800ECDE05000B0000000000000000000000AC
:1092E8000000000000000000000000000000000076
:1092F8000000000000000000000000000000000066
:109308000000000000000000000000000000000055
:109318000000000000000000000000000000000045
:109648000000000000000000489601004896010054
:109658005096010050960100589601005896010056
:109668006096010060960100689601006896010006
:1096780070960100709601007896010078960100B6
:109688008096010080960100889601008896010066
:109698009096010090960100989601009896010016
:1096A800A0960100A0960100A8960100A8960100C6
:1096B800B0960100B0960100B8960100B896010076
:1096C800C0960100C0960100C8960100C896010026
:1096D800D0960100D0960100D8960100D8960100D6
:1096E800E0960100E0960100E8960100E896010086
:1096F800F0960100F0960100F8960100F896010036
:1097080000970100009701000897010008970100E1
:109718001097010010970100189701001897010091
:109728002097010020970100289701002897010041
:1097380030970100309701003897010038970100F1
:1097480040970100409701004897010048970100A1
:109758005097010050970100589701005897010051
:109768006097010060970100689701006897010001
:1097780070970100709701007897010078970100B1
:109788008097010080970100889701008897010061
:109798009097010090970100989701009897010011
:1097A800A0970100A0970100A8970100A8970100C1
:1097B800B0970100B0970100B8970100B897010071
:1097C800C0970100C0970100C8970100C897010021
:1097D800D0970100D0970100D8970100D8970100D1
:1097E800E0970100E0970100E8970100E897010081
:1097F800F0970100F0970100F8970100F897010031
:1098080000980100009801000898010008980100DC
:10981800109801001098010018980100189801008C
:10982800209801002098010028980100289801003C
:1098380030980100309801003898010038980100EC
:10984800409801004098010048980100489801009C
:10985800509801005098010058980100589801004C
:1098680060980100609801006898010068980100FC
:1098780070980100709801007898010078980100AC
:10988800809801008098010088980100889801005C
:10989800909801009098010098980100989801000C
:1098A800A0980100A0980100A8980100A8980100BC
:1098B800B0980100B0980100B8980100B89801006C
:1098C800C0980100C0980100C8980100C89801001C
:1098D800D0980100D0980100D8980100D8980100CC
:1098E800E0980100E0980100E8980100E89801007C
:1098F800F0980100F0980100F8980100F89801002C
:1099080000990100009901000899010008990100D7
:109918001099010010990100189901001899010087
:109928002099010020990100289901002899010037
:1099380030990100309901003899010038990100E7
:109948004099010040990100489901004899010097
:109958005099010050990100589901005899010047
:1099680060990100609901006899010068990100F7
:1099780070990100709901007899010078990100A7
:109988008099010080990100889901008899010057
:109998009099010090990100989901009899010007
:1099A800A0990100A0990100A8990100A8990100B7
:1099B800B0990100B0990100B8990100B899010067
:1099C800C0990100C0990100C8990100C899010017
:1099D800D0990100D0990100D8990100D8990100C7
:1099E800E0990100E0990100E8990100E899010077
:1099F800F0990100F0990100F8990100F899010027
:109A0800009A0100009A0100089A0100089A0100D2
:109A1800109A0100109A0100189A0100189A010082
:109A2800209A0100209A0100289A0100289A010032
:109A3800309A0100309A0100389A0100389A0100E2
:109A4800409A0100409A0100FFFFFFFF000002005A
:049A5800E49A01008B
:04000003000080C1B8
:00000001FF
