:1020000000800020452500002D2500002D25000022
:1020100000000000000000000000000000000000C0
:102020000000000000000000000000002D2500005E
:1020300000000000000000002D2500009925000090
:102040002D2500002D2500002D2500002D25000048
:102050002D2500002D2500002D2500003125000034
:102060002D2500002D2500002D2500002D25000028
:102070002D25000085240000752400002D2500007A
:102080002D2500002D2500002D2500002D25000008
:10209000000000002D2500002D2500002D2500004A
:1020A0002D2500002D2500002D2500002D250000E8
:1020B0000000000010B5064C2378002B07D1054B1B
:1020C000002B02D0044800E000BF0123237010BDA4
:1020D000800000200000000090360000044B10B586
:1020E000002B03D00349044800E000BF10BDC046E8
:1020F00000000000840000209036000010B501218F
:10210000062000F0A1FB10BD10B50021062000F054
:102110009BFB10BD70B50B4C2578002D09D0FFF747
:10212000F3FF0022084922708020400000F024F9CB
:1021300070BDFFF7E3FF012396212A0023700901F8
:10214000F2E7C0469C00002020B2000010B500F06D
:102150008DF8002010BD70B5FA25FA24ED0064005A
:10216000FFF7CCFF280000F04FFAFFF7CDFF20006B
:1021700000F04AFAF4E710B5FA24A400FFF7BEFF16
:10218000200000F041FAFFF7BFFF962000F03CFA74
:10219000F4E710B5FA24A400FFF7B0FF642000F0C4
:1021A00033FAFFF7B1FF200000F02EFAF4E710B584
:1021B000FA246400FFF7A2FF322000F025FAFFF7AF
:1021C000A3FF200000F020FAF4E710B53224FFF757
:1021D00095FF200000F018FAFFF796FF200000F0AE
:1021E00013FAF4E710B56424FFF788FF200000F02D
:1021F0000BFAFFF789FF200000F006FAF4E710B5AC
:1022000072B60138FF3804280ED800F00FFF03051E
:1022100007090B00FFF79FFFFFF7ADFFFFF7B9FFBF
:10222000FFF7D3FFFFF7C3FFFFF7DCFF70470000A6
:10223000010000200200084B30B51C68074B1B68EA
:10224000944200DC30BD180024331D00243D2D884D
:102250008D42F7D00132F3E77402002070020020B3
:10226000822010B54000FFF7CAFF10BD044A10B528
:10227000136801331360034B1B68984710BDC046B9
:10228000A800002000000020431E70B5154C0F2B45
:1022900018D91023236024202368584300F05CFFE2
:1022A000114D2860002803D10220FF30FFF7A7FF5F
:1022B00000210A000D4B206819600D4C2B688842E4
:1022C00002DC70BD2060E6E71A805A609A60DA602E
:1022D0001A745A749A745A619C61DA611A620131F3
:1022E0002433ECE77402002070020020B8000020C4
:1022F00061220000F8B500241A4D1B4B2E681A68A5
:10230000A64204DC80204000FFF779FF18E01300AC
:1023100024321700133F3F78002F20D1012299610A
:1023200012495A740A68188001320A60104A11482A
:10233000116800290ED000681962D8611360CB6162
:102340000A4B1A682B689A4203DD0220FF30FFF720
:1023500056FFF8BD13600360DB611B62F0E70134D8
:10236000CEE7C0467402002070020020B8000020B2
:10237000B4000020B000002070B50C001500FFF77D
:1023800057FF00280ED0084BC4601B68DA43436037
:102390001B19944200D9A31A8360012303740023FC
:1023A0004561837470BDC046A800002010B50C00C4
:1023B000FFF73EFF00280CD0064BC2681B68D943CC
:1023C00043609B188A4200D9531A836001234461F9
:1023D000037410BDA8000020154B10B51C68002C1C
:1023E00000D1FEE7134A136801331360237C002BEE
:1023F0001BD0114BA2681B689A4216D800230F4AC3
:1024000023741368606901331360A3699847A37C40
:10241000002B06D0237C002B03D120886169FFF7B5
:10242000C5FF074A136801331360E469DAE7C04661
:10243000B0000020A4000020A8000020A000002080
:10244000AC00002010B5802410206400FFF71CFFB2
:1024500020000649FFF74EFF200000220449FFF745
:102460008BFFFFF7B9FF0120404210BD152100008E
:1024700020B2000010B5024800F016FD10BDC046A5
:10248000BC00002010B5024800F00EFD10BDC04693
:102490008001002073B51749174800F09DFA1749CD
:1024A000174800F099FA1749174800F095FA1749AC
:1024B000174800F091FA174C1749200000F08CFAE9
:1024C000164E1749300000F087FA0325012331002A
:1024D000019300950D330D22124800F071FC00238A
:1024E000009501931D221A3321000F4800F068FC6B
:1024F00073BDC0460008004244020020000C0042A8
:1025000048020020001000424C020020001400424B
:1025100050020020540200200018004258020020FF
:10252000001C0042BC00002080010020FEE70000EB
:10253000034B10B51B68002B00D0984710BDC04658
:102540005C02002070B50F490F4CA14204D100F08D
:102550007FF8FFF777FFFEE70C4D00238D42F6D0A2
:10256000CA18E818A24205D3094B8242EFD00949A4
:10257000002204E0006804331060F1E704C38B42DA
:10258000FCD3E4E700000020800000209436000027
:10259000800000208802002010B5FFF7D7FD00283A
:1025A00001D100F049F810BDF7B513480122844667
:1025B0001249134C8E68636805689B0E13400192A4
:1025C00088686268019F920E3A4067463F6893426E
:1025D0000ED1BD420CD186420AD35B19FA25486858
:1025E000AD00861B07486B437043000DC018FEBD4D
:1025F0003D0013000600E3E76002002010E000E069
:1026000000ED00E05555000070B5041E10D0FFF736
:10261000CBFF050000F01AF8FFF7C6FF054B401B83
:102620009842F7D9FA23013C9B00ED18002CF3D116
:1026300070BDC046E703000010B5034A13680133BC
:10264000136000F08DF910BD60020020704700009B
:102650001E2270B546484749436893431C3A1343CA
:10266000436008238C6923438B61434C434B9C821A
:102670009C8A14439C82DC681442FCD00124404AAA
:1026800014701578254203D055786DB2002DF8DB13
:1026900001249460547864B2002CFBDB394C546004
:1026A000547864B2002CFBDB8224E401548054781B
:1026B00064B2002CFBDB02249C840E34DD682542CE
:1026C000FCD0314CDC621024DD682542FCD09D8CAE
:1026D0002E4C2C439C841024DD682542FCD002241F
:1026E0009D8C80262C439C844024DD683542FCD0A0
:1026F000DD682542F9D01024DD682542FCD0002495
:102700009460547864B2002CFBDB214C5460547804
:1027100064B2002CFBDB1C6A1E4D2C4080251C6221
:102720001C6AAC431C62032393601B4B53605378B9
:102730005BB2002BFBDB0023FF240B72174A4B72AA
:102740008B72CB72164B1A60164B174A1B681168B6
:102750009A065B01C90E2340520F12020B4313432A
:10276000124A1385802342681343436070BDC046FC
:1027700000400041000400400C060000000800403A
:10278000000C004001050100B905FF7D040A0000AE
:1027900000070300FFFCFFFF03060100006CDC02E2
:1027A000040000202460800020608000004000427F
:1027B000182330B51D00040045430820204A551950
:1027C0002856013014D0032912D808006343D1568B
:1027D000D31800F02BFC02280E1B5868CB010221F5
:1027E000184A9B181A1840321170012282405A6010
:1027F00030BD5868CB010621124A9B181A18403286
:102800001170012282405A609A61F1E75868CB0149
:1028100006210C4A9B181A1840321170012282407E
:102820005A605A61E4E75868CB010221054A9B18B7
:102830001A1840321170012282409A60D8E7C046CF
:10284000B4320000004400411823F0B50824584376
:10285000114A13181C5701341BD0012635005F683C
:102860008356BD400D4ADB019A18906805420BD192
:102870000C00601E8441D219403210783440033677
:10288000A400B04320431070044A9B18002901D1D2
:102890005D61F0BD9D61FCE7B43200000044004181
:1028A00018224243F8B52C4E0300B218127A52B2E5
:1028B000140001320ED0481C00240C280AD800F065
:1028C000B5FB0720202020202020200B0B0B0B0025
:1028D000012464422000F8BD092905D10021D8B2A5
:1028E000FFF766FF0024F5E70A2902D1D8B20839BC
:1028F000F6E700240B29EDD1D8B20A39FFF758FFCB
:10290000E8E718204343F2185568F3562C00134AA1
:10291000DB016E0817389B18C9B204409E19002CC1
:102920000DD00F2430363278090122401143C9B24C
:102930005B19317040331A7810431870D2E73200B7
:102940000F27303216785B19BE4331431170403384
:102950001A7810431870BDE7B432000000440041FB
:10296000164A10B51368591C26D0013B1360002B82
:1029700022D172B6124B134A0433934213D9124A2E
:1029800001211000147D0C42FCD02021148BFF315A
:102990009B085B0021431183D3610C4B13800123FF
:1029A000027D1A42FCD0BFF34F8F094B094ADA600F
:1029B000BFF34F8FC046FDE710BDC04608000020A2
:1029C00000200000030200000040004102A5FFFFBC
:1029D00000ED00E00400FA05016070479446F0B590
:1029E0009E1E721E96416246056892072F68360643
:1029F0003A4332432A60072505AC24780068A401D5
:102A00002940214342680024022B00D05C0311437B
:102A100021434160F0BD30B5C0250368AD031C689B
:102A200012052A402243C0240904A4022140114374
:102A3000196003685A6814435C6030BD0123026862
:102A400011680B43136003681A68D207FCD4DA6973
:102A5000D207F9D470470223026811680B43136050
:102A60000268D3699B07FCD470470268137E9B07FA
:102A7000FCD57047002203685A8370470368187EAC
:102A80004007C00F70470368187EC0097047802355
:102A900002685B42117E0B43137670470368588BC4
:102AA0008007C00F704702230268518B0B4353838A
:102AB00070470368187EC007C00F70470368188D01
:102AC000C0B2704703681A7ED207FCD589B20120D4
:102AD00019857047012203689A75704701220368BF
:102AE0001A7570470368214A30B593422FD0204AA7
:102AF00093422FD01F4A93422FD01F4A93422FD088
:102B00001E4A93422FD01E4A93421FD10E231922F0
:102B10000121032599401B48C024016099082B40DE
:102B2000AB40FC359D4089000918A4000859A84312
:102B3000C0259D402B0003430B518023DB011A432A
:102B4000114B5A805A7852B2002AFBDB30BD092360
:102B50001422DDE70A231522DAE70B231622D7E732
:102B60000C231722D4E70D231822D1E700080042D6
:102B7000000C004200100042001400420018004205
:102B8000001C004200E100E0000C0040F8B5040029
:102B90000F0016001D00FFF7A5FF2000FFF74EFFF6
:102BA0001C21BB000B4071072268090C0B4313600A
:102BB000842322689375012F1AD11021012E00D091
:102BC00008390C4B69431868C00000F039FA072235
:102BD000216802408B895203DB04DB0C13438B8199
:102BE000226803049089DB0C400B4003184390815A
:102BF000F8BDC046040000200120704710B50368EE
:102C0000014A1B6A984710BD13040000C06D70474D
:102C1000A83003684020C01A7047C36D002B03D052
:102C2000836DC018007D704701204042FBE710B55E
:102C300004000069FFF702FF002322006365A03251
:102C4000A365E365A83413605360236010BD0200E0
:102C500010B5A8321368002BFCD10069FFF705FFFF
:102C600010BD0368002B02D162B6BFF36F8F7047AF
:102C7000F02001403039484248417047F0231B01A1
:102C80001940802306209B0099420AD00133FF336C
:102C90000130994205D0802302385B00994200D070
:102CA000002070470F2001400020012903D0023985
:102CB000481E8141481C70470300F0B5182685B0B6
:102CC0000391AC3304001878330008214343334D9B
:102CD0001700EB185956FFF7E3FD2300AD331878C2
:102CE000330008214343EB185956FFF7D9FD230061
:102CF000AF331B78022B0AD12300C0331878FF288A
:102D000005D008214643AE197156FFF7C9FD2600CC
:102D1000B0363078FF2819D00121FFF749FD18227D
:102D2000210033781E485A43AB56B431DB011818E2
:102D300008601C49AD185B1821000122B8310B60F6
:102D400069688A402100BC310A601A600122039B35
:102D500011002069FFF71AFF39002000FFF78EFFEE
:102D6000390005002000FFF79DFF39000600200014
:102D7000FFF77EFF33000090290020690122FFF752
:102D80002DFE2300AE331A7859782069FFF743FEF1
:102D90002069FFF760FE05B0F0BDC046B432000008
:102DA000184400411444004110B5402200210400A1
:102DB00000F0DCF90023200023646364A36410BDE9
:102DC000F7B51D0008AB1B780400009309AB1B7816
:102DD0001600019300234360FA239B0083600E4B8F
:102DE0000F00083303601430FFF7DEFF200060306F
:102DF000FFF7DAFF6A4623001278AC3327619A7036
:102E00006A4612791E70DA7022005D70FF23B032BC
:102E1000200013701374FEBD5C36000037B5EFF36D
:102E2000108300930123019372B63F24019B013B61
:102E30005A1C0FD0826C5D1E402A09D0026C81544E
:102E4000026C013222400264826C01328264EEE73D
:102E50002B00EDE768460193FFF703FF37BD13B57D
:102E6000EFF3108300930123019372B6019B5A1E66
:102E70000192002B14D0836C002B0ED03F22436CA8
:102E8000C45C436C013313404364836C013B836433
:102E90006846FFF7E6FE200016BD01246442F7E70E
:102EA0006846FFF7DEFEF6E710B504000069FFF79D
:102EB000F5FD002805D02069FFF700FE2069FFF727
:102EC000F2FD2069FFF7DAFD002818D02069FFF72E
:102ED000F5FD010020001430FFF7A0FF2300B03300
:102EE0001B78FF2B0BD04023E26D9B1A092B06DCCD
:102EF00023002200B433BC321B6812681A602069B8
:102F0000FFF7D7FD00280CD02300A8331B68002B47
:102F100013D020006030FFF7A2FFC1B22069FFF795
:102F2000D1FD2069FFF7AFFD002805D02069FFF72C
:102F3000AEFD2069FFF79EFD10BD2069FFF7CEFDB5
:102F4000EFE70000F8B5040000690D002600FFF768
:102F5000B0FDA836002802D03368002B31D00F27EF
:102F60003368402B23D1EFF31083012213420FD19A
:102F7000164B5B68DB05DB0DF2D0103B5BB2002B20
:102F80000FDA3B40083B9B08114A9B009B181B68CB
:102F90002069FFF78EFD0028E2D02000FFF784FFB4
:102FA000DEE79B08C0330B4A9B009B58F0E72000EC
:102FB00029006030FFF732FF2069FFF78BFD012009
:102FC000F8BD29002069FFF77DFDF8E700ED00E07E
:102FD0001CED00E000E100E010B504001430FFF744
:102FE0003EFF2300B0331B78FF2B0AD04023E26D55
:102FF0009B1A0A2B05DD2300BC34B8331B682268FA
:103000001A6010BDF7B506000D000C008B18019377
:10301000019B671B9C4207D0336821781B683000F6
:10302000984701340028F3D13800FEBD02B4714640
:1030300049084900095C49008E4402BC7047C046FB
:10304000002243088B4274D303098B425FD3030AE7
:103050008B4244D3030B8B4228D3030C8B420DD3FA
:10306000FF22090212BA030C8B4202D31212090288
:1030700065D0030B8B4219D300E0090AC30B8B42C6
:1030800001D3CB03C01A5241830B8B4201D38B0374
:10309000C01A5241430B8B4201D34B03C01A524119
:1030A000030B8B4201D30B03C01A5241C30A8B425C
:1030B00001D3CB02C01A5241830A8B4201D38B0247
:1030C000C01A5241430A8B4201D34B02C01A5241EB
:1030D000030A8B4201D30B02C01A5241CDD2C3095D
:1030E0008B4201D3CB01C01A524183098B4201D3D9
:1030F0008B01C01A524143098B4201D34B01C01AC4
:10310000524103098B4201D30B01C01A5241C3083B
:103110008B4201D3CB00C01A524183088B4201D3AA
:103120008B00C01A524143088B4201D34B00C01A96
:103130005241411A00D20146524110467047FFE702
:1031400001B5002000F006F802BDC0460029F7D006
:1031500076E770477047C04610B5034B010018680A
:1031600000F00CF810BDC0460C00002003008218CF
:10317000934200D1704719700133F9E7F8B5032382
:10318000CD1C9D43083506000C2D1FD20C25A942ED
:103190001ED8300000F062F825490A681400002C9F
:1031A0001AD1244F3B68002B04D12100300000F0DD
:1031B00043F838602900300000F03EF8431C2BD162
:1031C0000C233000336000F051F803E0002DDEDA0C
:1031D0000C2333600020F8BD23685B1B19D40B2B34
:1031E00003D92360E418256003E06368A2420ED18E
:1031F0000B60300000F03AF8200007220B30231D4E
:103200009043C21A9842E6D01B1AA350E3E75360DA
:10321000EFE722006468C2E70323C41C9C43A0427A
:10322000E1D0211A300000F007F8431CDBD1C7E7DA
:103230006402002068020020002370B5064D0400DF
:1032400008002B6000F01CF8431C03D12B68002BF6
:1032500000D0236070BDC0467802002010B502483F
:1032600000F00CF810BDC0468002002010B50248E6
:1032700000F005F810BDC04680020020704770477E
:10328000044A03001068002802D0C3181360704776
:103290000148FAE76C02002088020020F8B5C04619
:1032A000F8BC08BC9E467047F8B5C046F8BC08BCE0
:1032B0009E46704700000000160000000800000055
:1032C0001C000000FF0000040004060000000000D5
:1032D00017000000080000001C000000FF000104AF
:1032E00001040700000000000A00000008000000C0
:1032F0001C000000120000010001FF00000000009F
:103300000B000000080000001C0000001300010179
:103310000101FF00010000000A0000000800000099
:103320001C000000FF00000500050A00010000006D
:103330000B000000080000001C000000FF00010559
:1033400001050B0000000000140000000800000050
:103350002C000000FF00020002000400000000003A
:1033600015000000080000002C000000FF00030012
:103370000300050000000000100000000200000033
:103380001C000000FF00000200020000000000001E
:10339000110000000200000004000000FF00FFFF19
:1033A000FFFF010000000000130000000200000009
:1033B0001C000000FF0001030103FF0000000000EB
:1033C0000800000003000000040000001000FFFFE0
:1033D000FFFF1000000000000900000003000000D3
:1033E000040000001100FFFFFFFFFF0001000000CC
:1033F000170000000300000004000000FF00FFFFB2
:10340000FFFFFF00010000001600000003000000A5
:1034100004000000FF00FFFFFFFFFF0000000000AE
:103420000200000001000000060000000000FFFF95
:10343000FFFFFF000100000002000000010000008B
:10344000040000000A00FFFFFFFF0200010000006F
:103450000300000001000000040000000B00FFFF5B
:10346000FFFF030000000000040000000100000056
:103470001C000000040000000000FF00000000002D
:1034800005000000010000001C0000000500010014
:103490000100FF0000000000060000000100000025
:1034A000040000000600FFFFFFFFFF000000000017
:1034B0000700000001000000040000000700FFFFFB
:1034C000FFFFFF00000000001800000006000000E1
:1034D00000000000FF00FFFFFFFFFF0000000000F2
:1034E000190000000600000000000000FF00FFFFC0
:1034F000FFFFFF00000000001200000008000000B5
:1035000004000000FF00FFFFFFFFFF0000000000BD
:10351000030000000800000004000000FF00FFFF9F
:10352000FFFFFF00000000000C000000030000008F
:1035300000000000FF00FFFFFFFFFF000000000091
:103540000D0000000800000000000000FF00FFFF69
:10355000FFFFFF00000000000E0000000800000058
:1035600000000000FF00FFFFFFFFFF000000000061
:103570000F0000000300000000000000FF00FFFF3C
:10358000FFFFFF00000000001B000000080000001B
:1035900000000000FF00FFFFFFFFFF000000000031
:1035A0001C0000000800000000000000FF00FFFFFA
:1035B000FFFF0800010000000800000001000000FB
:1035C000060000000200FFFFFFFFFF0001000000F7
:1035D00009000000080000001800000003000104BA
:1035E00001040900000000000000000008000000C5
:1035F00000000000FF00FFFFFFFFFF0000000000D1
:10360000010000000800000000000000FF00FFFFB4
:10361000FFFFFF00000000000C000000030000009E
:1036200000000000FF00FFFFFFFFFF0000000000A0
:103630000D0000000300000000000000FF00FFFF7D
:10364000FFFFFF00000000000F000000030000006B
:1036500000000000FF00FFFFFFFFFF000000000070
:1036600000000000452F000005300000112C000074
:103670004F2C00000D2C0000D92F00001B2C000047
:10368000FD2B0000B92C00002F2C0000F92B0000AE
:043690000000000036
:103694002D22000040420F00FFFFFFFF100000201A
:1036A4000000000000000000000000000000000016
:1036B4000000000000000000000000000000000006
:1036C40000000000000000000000000000000000F6
:1036D40000000000000000000000000000000000E6
:1036E40000000000000000000000000000000000D6
:1036F40000000000000000000000000000000000C6
:10370400DD20000095240000B5200000000000002A
:04000003000025458F
:00000001FF
